{
  "_format": "hh-sol-artifact-1",
  "contractName": "WRNFTMarketplace",
  "sourceName": "contracts/WRNFTMarketplace.sol",
  "abi": [
    {
      "inputs": [],
      "stateMutability": "nonpayable",
      "type": "constructor"
    },
    {
      "anonymous": false,
      "inputs": [
        {
          "indexed": true,
          "internalType": "address",
          "name": "owner",
          "type": "address"
        },
        {
          "indexed": true,
          "internalType": "address",
          "name": "approved",
          "type": "address"
        },
        {
          "indexed": true,
          "internalType": "uint256",
          "name": "tokenId",
          "type": "uint256"
        }
      ],
      "name": "Approval",
      "type": "event"
    },
    {
      "anonymous": false,
      "inputs": [
        {
          "indexed": true,
          "internalType": "address",
          "name": "owner",
          "type": "address"
        },
        {
          "indexed": true,
          "internalType": "address",
          "name": "operator",
          "type": "address"
        },
        {
          "indexed": false,
          "internalType": "bool",
          "name": "approved",
          "type": "bool"
        }
      ],
      "name": "ApprovalForAll",
      "type": "event"
    },
    {
      "anonymous": false,
      "inputs": [
        {
          "indexed": true,
          "internalType": "address",
          "name": "from",
          "type": "address"
        },
        {
          "indexed": true,
          "internalType": "address",
          "name": "to",
          "type": "address"
        },
        {
          "indexed": true,
          "internalType": "uint256",
          "name": "tokenId",
          "type": "uint256"
        }
      ],
      "name": "Transfer",
      "type": "event"
    },
    {
      "anonymous": false,
      "inputs": [
        {
          "indexed": true,
          "internalType": "uint256",
          "name": "tokenId",
          "type": "uint256"
        },
        {
          "indexed": false,
          "internalType": "address",
          "name": "seller",
          "type": "address"
        },
        {
          "indexed": false,
          "internalType": "address",
          "name": "owner",
          "type": "address"
        },
        {
          "indexed": false,
          "internalType": "uint256",
          "name": "price",
          "type": "uint256"
        },
        {
          "indexed": false,
          "internalType": "bool",
          "name": "sold",
          "type": "bool"
        }
      ],
      "name": "idMarketItemCreated",
      "type": "event"
    },
    {
      "inputs": [],
      "name": "_itemsSold",
      "outputs": [
        {
          "internalType": "uint256",
          "name": "_value",
          "type": "uint256"
        }
      ],
      "stateMutability": "view",
      "type": "function"
    },
    {
      "inputs": [],
      "name": "_tokenIds",
      "outputs": [
        {
          "internalType": "uint256",
          "name": "_value",
          "type": "uint256"
        }
      ],
      "stateMutability": "view",
      "type": "function"
    },
    {
      "inputs": [
        {
          "internalType": "address",
          "name": "to",
          "type": "address"
        },
        {
          "internalType": "uint256",
          "name": "tokenId",
          "type": "uint256"
        }
      ],
      "name": "approve",
      "outputs": [],
      "stateMutability": "nonpayable",
      "type": "function"
    },
    {
      "inputs": [
        {
          "internalType": "address",
          "name": "owner",
          "type": "address"
        }
      ],
      "name": "balanceOf",
      "outputs": [
        {
          "internalType": "uint256",
          "name": "",
          "type": "uint256"
        }
      ],
      "stateMutability": "view",
      "type": "function"
    },
    {
      "inputs": [
        {
          "internalType": "uint256",
          "name": "tokenId",
          "type": "uint256"
        }
      ],
      "name": "createMarketSale",
      "outputs": [],
      "stateMutability": "payable",
      "type": "function"
    },
    {
      "inputs": [
        {
          "internalType": "string",
          "name": "tokenURI",
          "type": "string"
        },
        {
          "internalType": "uint256",
          "name": "price",
          "type": "uint256"
        }
      ],
      "name": "createToken",
      "outputs": [
        {
          "internalType": "uint256",
          "name": "",
          "type": "uint256"
        }
      ],
      "stateMutability": "payable",
      "type": "function"
    },
    {
      "inputs": [],
      "name": "fetchItemsListed",
      "outputs": [
        {
          "components": [
            {
              "internalType": "uint256",
              "name": "tokenId",
              "type": "uint256"
            },
            {
              "internalType": "address payable",
              "name": "seller",
              "type": "address"
            },
            {
              "internalType": "address payable",
              "name": "owner",
              "type": "address"
            },
            {
              "internalType": "uint256",
              "name": "price",
              "type": "uint256"
            },
            {
              "internalType": "bool",
              "name": "sold",
              "type": "bool"
            }
          ],
          "internalType": "struct WRNFTMarketplace.MarketItem[]",
          "name": "",
          "type": "tuple[]"
        }
      ],
      "stateMutability": "view",
      "type": "function"
    },
    {
      "inputs": [],
      "name": "fetchMarketItem",
      "outputs": [
        {
          "components": [
            {
              "internalType": "uint256",
              "name": "tokenId",
              "type": "uint256"
            },
            {
              "internalType": "address payable",
              "name": "seller",
              "type": "address"
            },
            {
              "internalType": "address payable",
              "name": "owner",
              "type": "address"
            },
            {
              "internalType": "uint256",
              "name": "price",
              "type": "uint256"
            },
            {
              "internalType": "bool",
              "name": "sold",
              "type": "bool"
            }
          ],
          "internalType": "struct WRNFTMarketplace.MarketItem[]",
          "name": "",
          "type": "tuple[]"
        }
      ],
      "stateMutability": "view",
      "type": "function"
    },
    {
      "inputs": [],
      "name": "fetchMyNFT",
      "outputs": [
        {
          "components": [
            {
              "internalType": "uint256",
              "name": "tokenId",
              "type": "uint256"
            },
            {
              "internalType": "address payable",
              "name": "seller",
              "type": "address"
            },
            {
              "internalType": "address payable",
              "name": "owner",
              "type": "address"
            },
            {
              "internalType": "uint256",
              "name": "price",
              "type": "uint256"
            },
            {
              "internalType": "bool",
              "name": "sold",
              "type": "bool"
            }
          ],
          "internalType": "struct WRNFTMarketplace.MarketItem[]",
          "name": "",
          "type": "tuple[]"
        }
      ],
      "stateMutability": "view",
      "type": "function"
    },
    {
      "inputs": [
        {
          "internalType": "uint256",
          "name": "tokenId",
          "type": "uint256"
        }
      ],
      "name": "getApproved",
      "outputs": [
        {
          "internalType": "address",
          "name": "",
          "type": "address"
        }
      ],
      "stateMutability": "view",
      "type": "function"
    },
    {
      "inputs": [],
      "name": "getListingPrice",
      "outputs": [
        {
          "internalType": "uint256",
          "name": "",
          "type": "uint256"
        }
      ],
      "stateMutability": "view",
      "type": "function"
    },
    {
      "inputs": [
        {
          "internalType": "uint256",
          "name": "",
          "type": "uint256"
        }
      ],
      "name": "idMarketItem",
      "outputs": [
        {
          "internalType": "uint256",
          "name": "tokenId",
          "type": "uint256"
        },
        {
          "internalType": "address payable",
          "name": "seller",
          "type": "address"
        },
        {
          "internalType": "address payable",
          "name": "owner",
          "type": "address"
        },
        {
          "internalType": "uint256",
          "name": "price",
          "type": "uint256"
        },
        {
          "internalType": "bool",
          "name": "sold",
          "type": "bool"
        }
      ],
      "stateMutability": "view",
      "type": "function"
    },
    {
      "inputs": [
        {
          "internalType": "address",
          "name": "owner",
          "type": "address"
        },
        {
          "internalType": "address",
          "name": "operator",
          "type": "address"
        }
      ],
      "name": "isApprovedForAll",
      "outputs": [
        {
          "internalType": "bool",
          "name": "",
          "type": "bool"
        }
      ],
      "stateMutability": "view",
      "type": "function"
    },
    {
      "inputs": [],
      "name": "name",
      "outputs": [
        {
          "internalType": "string",
          "name": "",
          "type": "string"
        }
      ],
      "stateMutability": "view",
      "type": "function"
    },
    {
      "inputs": [],
      "name": "owner",
      "outputs": [
        {
          "internalType": "address payable",
          "name": "",
          "type": "address"
        }
      ],
      "stateMutability": "view",
      "type": "function"
    },
    {
      "inputs": [
        {
          "internalType": "uint256",
          "name": "tokenId",
          "type": "uint256"
        }
      ],
      "name": "ownerOf",
      "outputs": [
        {
          "internalType": "address",
          "name": "",
          "type": "address"
        }
      ],
      "stateMutability": "view",
      "type": "function"
    },
    {
      "inputs": [
        {
          "internalType": "uint256",
          "name": "tokenId",
          "type": "uint256"
        },
        {
          "internalType": "uint256",
          "name": "price",
          "type": "uint256"
        }
      ],
      "name": "resellToken",
      "outputs": [],
      "stateMutability": "payable",
      "type": "function"
    },
    {
      "inputs": [
        {
          "internalType": "address",
          "name": "from",
          "type": "address"
        },
        {
          "internalType": "address",
          "name": "to",
          "type": "address"
        },
        {
          "internalType": "uint256",
          "name": "tokenId",
          "type": "uint256"
        }
      ],
      "name": "safeTransferFrom",
      "outputs": [],
      "stateMutability": "nonpayable",
      "type": "function"
    },
    {
      "inputs": [
        {
          "internalType": "address",
          "name": "from",
          "type": "address"
        },
        {
          "internalType": "address",
          "name": "to",
          "type": "address"
        },
        {
          "internalType": "uint256",
          "name": "tokenId",
          "type": "uint256"
        },
        {
          "internalType": "bytes",
          "name": "data",
          "type": "bytes"
        }
      ],
      "name": "safeTransferFrom",
      "outputs": [],
      "stateMutability": "nonpayable",
      "type": "function"
    },
    {
      "inputs": [
        {
          "internalType": "address",
          "name": "operator",
          "type": "address"
        },
        {
          "internalType": "bool",
          "name": "approved",
          "type": "bool"
        }
      ],
      "name": "setApprovalForAll",
      "outputs": [],
      "stateMutability": "nonpayable",
      "type": "function"
    },
    {
      "inputs": [
        {
          "internalType": "bytes4",
          "name": "interfaceId",
          "type": "bytes4"
        }
      ],
      "name": "supportsInterface",
      "outputs": [
        {
          "internalType": "bool",
          "name": "",
          "type": "bool"
        }
      ],
      "stateMutability": "view",
      "type": "function"
    },
    {
      "inputs": [],
      "name": "symbol",
      "outputs": [
        {
          "internalType": "string",
          "name": "",
          "type": "string"
        }
      ],
      "stateMutability": "view",
      "type": "function"
    },
    {
      "inputs": [
        {
          "internalType": "uint256",
          "name": "tokenId",
          "type": "uint256"
        }
      ],
      "name": "tokenURI",
      "outputs": [
        {
          "internalType": "string",
          "name": "",
          "type": "string"
        }
      ],
      "stateMutability": "view",
      "type": "function"
    },
    {
      "inputs": [
        {
          "internalType": "address",
          "name": "from",
          "type": "address"
        },
        {
          "internalType": "address",
          "name": "to",
          "type": "address"
        },
        {
          "internalType": "uint256",
          "name": "tokenId",
          "type": "uint256"
        }
      ],
      "name": "transferFrom",
      "outputs": [],
      "stateMutability": "nonpayable",
      "type": "function"
    },
    {
      "inputs": [
        {
          "internalType": "uint256",
          "name": "_listingPrice",
          "type": "uint256"
        }
      ],
      "name": "updateListingPrice",
      "outputs": [],
      "stateMutability": "payable",
      "type": "function"
    }
  ],
  "bytecode": "0x60806040526605543df729c000600b553480156200001c57600080fd5b506040518060400160405280601781526020017f57524e5446204d61726b6574706c61636520546f6b656e0000000000000000008152506040518060400160405280600281526020017f575200000000000000000000000000000000000000000000000000000000000081525081600090816200009a919062000355565b508060019081620000ac919062000355565b5050503373ffffffffffffffffffffffffffffffffffffffff16600960009054906101000a905050506200043c565b600081519050919050565b7f4e487b7100000000000000000000000000000000000000000000000000000000600052604160045260246000fd5b7f4e487b7100000000000000000000000000000000000000000000000000000000600052602260045260246000fd5b600060028204905060018216806200015d57607f821691505b60208210810362000173576200017262000115565b5b50919050565b60008190508160005260206000209050919050565b60006020601f8301049050919050565b600082821b905092915050565b600060088302620001dd7fffffffffffffffffffffffffffffffffffffffffffffffffffffffffffffffff826200019e565b620001e986836200019e565b95508019841693508086168417925050509392505050565b6000819050919050565b6000819050919050565b600062000236620002306200022a8462000201565b6200020b565b62000201565b9050919050565b6000819050919050565b620002528362000215565b6200026a62000261826200023d565b848454620001ab565b825550505050565b600090565b6200028162000272565b6200028e81848462000247565b505050565b5b81811015620002b657620002aa60008262000277565b60018101905062000294565b5050565b601f8211156200030557620002cf8162000179565b620002da846200018e565b81016020851015620002ea578190505b62000302620002f9856200018e565b83018262000293565b50505b505050565b600082821c905092915050565b60006200032a600019846008026200030a565b1980831691505092915050565b600062000345838362000317565b9150826002028217905092915050565b6200036082620000db565b67ffffffffffffffff8111156200037c576200037b620000e6565b5b62000388825462000144565b62000395828285620002ba565b600060209050601f831160018114620003cd5760008415620003b8578287015190505b620003c4858262000337565b86555062000434565b601f198416620003dd8662000179565b60005b828110156200040757848901518255600182019150602085019450602081019050620003e0565b8683101562000427578489015162000423601f89168262000317565b8355505b6001600288020188555050505b505050505050565b614634806200044c6000396000f3fe6080604052600436106101665760003560e01c806387506a0d116100d1578063ae677aa31161008a578063c18763f711610064578063c18763f71461052d578063c87b56dd14610558578063e219fc7514610595578063e985e9c5146105b157610166565b8063ae677aa3146104cc578063b88d4fde146104e8578063be9af5361461051157610166565b806387506a0d146103cc5780638da5cb5b146103f75780638fafd0211461042257806395d89b411461044d578063a22cb46514610478578063aa46a400146104a157610166565b806323b872dd1161012357806323b872dd146102a557806342842e0e146102ce57806345f8fa80146102f75780636352211e1461032257806370a082311461035f57806372b3b6201461039c57610166565b806301ffc9a71461016b57806306fdde03146101a8578063081812fc146101d3578063087ae8a214610210578063095ea7b31461025157806312e855851461027a575b600080fd5b34801561017757600080fd5b50610192600480360381019061018d9190612ea1565b6105ee565b60405161019f9190612ee9565b60405180910390f35b3480156101b457600080fd5b506101bd6106d0565b6040516101ca9190612f94565b60405180910390f35b3480156101df57600080fd5b506101fa60048036038101906101f59190612fec565b610762565b604051610207919061305a565b60405180910390f35b34801561021c57600080fd5b5061023760048036038101906102329190612fec565b6107a8565b6040516102489594939291906130a5565b60405180910390f35b34801561025d57600080fd5b5061027860048036038101906102739190613124565b61082b565b005b34801561028657600080fd5b5061028f610942565b60405161029c9190613164565b60405180910390f35b3480156102b157600080fd5b506102cc60048036038101906102c7919061317f565b61094c565b005b3480156102da57600080fd5b506102f560048036038101906102f0919061317f565b6109ac565b005b34801561030357600080fd5b5061030c6109cc565b6040516103199190613316565b60405180910390f35b34801561032e57600080fd5b5061034960048036038101906103449190612fec565b610cb8565b604051610356919061305a565b60405180910390f35b34801561036b57600080fd5b5061038660048036038101906103819190613338565b610d3e565b6040516103939190613164565b60405180910390f35b6103b660048036038101906103b1919061349a565b610df5565b6040516103c39190613164565b60405180910390f35b3480156103d857600080fd5b506103e1610e40565b6040516103ee9190613164565b60405180910390f35b34801561040357600080fd5b5061040c610e4c565b60405161041991906134f6565b60405180910390f35b34801561042e57600080fd5b50610437610e72565b6040516104449190613316565b60405180910390f35b34801561045957600080fd5b506104626110da565b60405161046f9190612f94565b60405180910390f35b34801561048457600080fd5b5061049f600480360381019061049a919061353d565b61116c565b005b3480156104ad57600080fd5b506104b6611182565b6040516104c39190613164565b60405180910390f35b6104e660048036038101906104e19190612fec565b61118e565b005b3480156104f457600080fd5b5061050f600480360381019061050a919061361e565b611228565b005b61052b60048036038101906105269190612fec565b61128a565b005b34801561053957600080fd5b506105426114c2565b60405161054f9190613316565b60405180910390f35b34801561056457600080fd5b5061057f600480360381019061057a9190612fec565b6117ae565b60405161058c9190612f94565b60405180910390f35b6105af60048036038101906105aa91906136a1565b6118c0565b005b3480156105bd57600080fd5b506105d860048036038101906105d391906136e1565b611ab5565b6040516105e59190612ee9565b60405180910390f35b60007f80ac58cd000000000000000000000000000000000000000000000000000000007bffffffffffffffffffffffffffffffffffffffffffffffffffffffff1916827bffffffffffffffffffffffffffffffffffffffffffffffffffffffff191614806106b957507f5b5e139f000000000000000000000000000000000000000000000000000000007bffffffffffffffffffffffffffffffffffffffffffffffffffffffff1916827bffffffffffffffffffffffffffffffffffffffffffffffffffffffff1916145b806106c957506106c882611b49565b5b9050919050565b6060600080546106df90613750565b80601f016020809104026020016040519081016040528092919081815260200182805461070b90613750565b80156107585780601f1061072d57610100808354040283529160200191610758565b820191906000526020600020905b81548152906001019060200180831161073b57829003601f168201915b5050505050905090565b600061076d82611bb3565b6004600083815260200190815260200160002060009054906101000a900473ffffffffffffffffffffffffffffffffffffffff169050919050565b600a6020528060005260406000206000915090508060000154908060010160009054906101000a900473ffffffffffffffffffffffffffffffffffffffff16908060020160009054906101000a900473ffffffffffffffffffffffffffffffffffffffff16908060030154908060040160009054906101000a900460ff16905085565b600061083682610cb8565b90508073ffffffffffffffffffffffffffffffffffffffff168373ffffffffffffffffffffffffffffffffffffffff16036108a6576040517f08c379a000000000000000000000000000000000000000000000000000000000815260040161089d906137f3565b60405180910390fd5b8073ffffffffffffffffffffffffffffffffffffffff166108c5611bfe565b73ffffffffffffffffffffffffffffffffffffffff1614806108f457506108f3816108ee611bfe565b611ab5565b5b610933576040517f08c379a000000000000000000000000000000000000000000000000000000000815260040161092a90613885565b60405180910390fd5b61093d8383611c06565b505050565b6000600b54905090565b61095d610957611bfe565b82611cbf565b61099c576040517f08c379a000000000000000000000000000000000000000000000000000000000815260040161099390613917565b60405180910390fd5b6109a7838383611d54565b505050565b6109c783838360405180602001604052806000815250611228565b505050565b606060006109da600761204d565b905060008060005b83811015610a82573373ffffffffffffffffffffffffffffffffffffffff16600a6000600184610a129190613966565b815260200190815260200160002060010160009054906101000a900473ffffffffffffffffffffffffffffffffffffffff1673ffffffffffffffffffffffffffffffffffffffff1603610a6f57600183610a6c9190613966565b92505b8080610a7a9061399a565b9150506109e2565b5060008267ffffffffffffffff811115610a9f57610a9e61336f565b5b604051908082528060200260200182016040528015610ad857816020015b610ac5612dd8565b815260200190600190039081610abd5790505b50905060005b84811015610cad573373ffffffffffffffffffffffffffffffffffffffff16600a6000600184610b0e9190613966565b815260200190815260200160002060010160009054906101000a900473ffffffffffffffffffffffffffffffffffffffff1673ffffffffffffffffffffffffffffffffffffffff1603610c9a576000600182610b6a9190613966565b90506000600a60008381526020019081526020016000209050806040518060a0016040529081600082015481526020016001820160009054906101000a900473ffffffffffffffffffffffffffffffffffffffff1673ffffffffffffffffffffffffffffffffffffffff1673ffffffffffffffffffffffffffffffffffffffff1681526020016002820160009054906101000a900473ffffffffffffffffffffffffffffffffffffffff1673ffffffffffffffffffffffffffffffffffffffff1673ffffffffffffffffffffffffffffffffffffffff168152602001600382015481526020016004820160009054906101000a900460ff161515151581525050848681518110610c7d57610c7c6139e2565b5b6020026020010181905250600185610c959190613966565b945050505b8080610ca59061399a565b915050610ade565b508094505050505090565b600080610cc48361205b565b9050600073ffffffffffffffffffffffffffffffffffffffff168173ffffffffffffffffffffffffffffffffffffffff1603610d35576040517f08c379a0000000000000000000000000000000000000000000000000000000008152600401610d2c90613a5d565b60405180910390fd5b80915050919050565b60008073ffffffffffffffffffffffffffffffffffffffff168273ffffffffffffffffffffffffffffffffffffffff1603610dae576040517f08c379a0000000000000000000000000000000000000000000000000000000008152600401610da590613aef565b60405180910390fd5b600360008373ffffffffffffffffffffffffffffffffffffffff1673ffffffffffffffffffffffffffffffffffffffff168152602001908152602001600020549050919050565b6000610e016007612098565b6000610e0d600761204d565b9050610e1933826120ae565b610e2381856122cb565b610e2c81612338565b610e3681846123d1565b8091505092915050565b60088060000154905081565b600960009054906101000a900473ffffffffffffffffffffffffffffffffffffffff1681565b60606000610e80600761204d565b90506000610e8e600861204d565b610e98600761204d565b610ea29190613b0f565b90506000808267ffffffffffffffff811115610ec157610ec061336f565b5b604051908082528060200260200182016040528015610efa57816020015b610ee7612dd8565b815260200190600190039081610edf5790505b50905060005b848110156110cf573073ffffffffffffffffffffffffffffffffffffffff16600a6000600184610f309190613966565b815260200190815260200160002060020160009054906101000a900473ffffffffffffffffffffffffffffffffffffffff1673ffffffffffffffffffffffffffffffffffffffff16036110bc576000600182610f8c9190613966565b90506000600a60008381526020019081526020016000209050806040518060a0016040529081600082015481526020016001820160009054906101000a900473ffffffffffffffffffffffffffffffffffffffff1673ffffffffffffffffffffffffffffffffffffffff1673ffffffffffffffffffffffffffffffffffffffff1681526020016002820160009054906101000a900473ffffffffffffffffffffffffffffffffffffffff1673ffffffffffffffffffffffffffffffffffffffff1673ffffffffffffffffffffffffffffffffffffffff168152602001600382015481526020016004820160009054906101000a900460ff16151515158152505084868151811061109f5761109e6139e2565b5b60200260200101819052506001856110b79190613966565b945050505b80806110c79061399a565b915050610f00565b508094505050505090565b6060600180546110e990613750565b80601f016020809104026020016040519081016040528092919081815260200182805461111590613750565b80156111625780601f1061113757610100808354040283529160200191611162565b820191906000526020600020905b81548152906001019060200180831161114557829003601f168201915b5050505050905090565b61117e611177611bfe565b83836125d4565b5050565b60078060000154905081565b600960009054906101000a900473ffffffffffffffffffffffffffffffffffffffff1673ffffffffffffffffffffffffffffffffffffffff163373ffffffffffffffffffffffffffffffffffffffff161461121e576040517f08c379a000000000000000000000000000000000000000000000000000000000815260040161121590613bb5565b60405180910390fd5b80600b8190555050565b611239611233611bfe565b83611cbf565b611278576040517f08c379a000000000000000000000000000000000000000000000000000000000815260040161126f90613917565b60405180910390fd5b61128484848484612740565b50505050565b6000600a60008381526020019081526020016000206003015490508034146112e7576040517f08c379a00000000000000000000000000000000000000000000000000000000081526004016112de90613c47565b60405180910390fd5b33600a600084815260200190815260200160002060020160006101000a81548173ffffffffffffffffffffffffffffffffffffffff021916908373ffffffffffffffffffffffffffffffffffffffff1602179055506001600a600084815260200190815260200160002060040160006101000a81548160ff0219169083151502179055506000600a600084815260200190815260200160002060020160006101000a81548173ffffffffffffffffffffffffffffffffffffffff021916908373ffffffffffffffffffffffffffffffffffffffff1602179055506113cb6008612098565b6113d6303384611d54565b600960009054906101000a900473ffffffffffffffffffffffffffffffffffffffff1673ffffffffffffffffffffffffffffffffffffffff166108fc600b549081150290604051600060405180830381858888f19350505050158015611440573d6000803e3d6000fd5b50600a600083815260200190815260200160002060010160009054906101000a900473ffffffffffffffffffffffffffffffffffffffff1673ffffffffffffffffffffffffffffffffffffffff166108fc349081150290604051600060405180830381858888f193505050501580156114bd573d6000803e3d6000fd5b505050565b606060006114d0600761204d565b905060008060005b83811015611578573373ffffffffffffffffffffffffffffffffffffffff16600a60006001846115089190613966565b815260200190815260200160002060020160009054906101000a900473ffffffffffffffffffffffffffffffffffffffff1673ffffffffffffffffffffffffffffffffffffffff1603611565576001836115629190613966565b92505b80806115709061399a565b9150506114d8565b5060008267ffffffffffffffff8111156115955761159461336f565b5b6040519080825280602002602001820160405280156115ce57816020015b6115bb612dd8565b8152602001906001900390816115b35790505b50905060005b848110156117a3573373ffffffffffffffffffffffffffffffffffffffff16600a60006001846116049190613966565b815260200190815260200160002060020160009054906101000a900473ffffffffffffffffffffffffffffffffffffffff1673ffffffffffffffffffffffffffffffffffffffff16036117905760006001826116609190613966565b90506000600a60008381526020019081526020016000209050806040518060a0016040529081600082015481526020016001820160009054906101000a900473ffffffffffffffffffffffffffffffffffffffff1673ffffffffffffffffffffffffffffffffffffffff1673ffffffffffffffffffffffffffffffffffffffff1681526020016002820160009054906101000a900473ffffffffffffffffffffffffffffffffffffffff1673ffffffffffffffffffffffffffffffffffffffff1673ffffffffffffffffffffffffffffffffffffffff168152602001600382015481526020016004820160009054906101000a900460ff161515151581525050848681518110611773576117726139e2565b5b602002602001018190525060018561178b9190613966565b945050505b808061179b9061399a565b9150506115d4565b508094505050505090565b60606117b982611bb3565b60006006600084815260200190815260200160002080546117d990613750565b80601f016020809104026020016040519081016040528092919081815260200182805461180590613750565b80156118525780601f1061182757610100808354040283529160200191611852565b820191906000526020600020905b81548152906001019060200180831161183557829003601f168201915b50505050509050600061186361279c565b905060008151036118785781925050506118bb565b6000825111156118ad578082604051602001611895929190613ca3565b604051602081830303815290604052925050506118bb565b6118b6846127b3565b925050505b919050565b3373ffffffffffffffffffffffffffffffffffffffff16600a600084815260200190815260200160002060020160009054906101000a900473ffffffffffffffffffffffffffffffffffffffff1673ffffffffffffffffffffffffffffffffffffffff1614611964576040517f08c379a000000000000000000000000000000000000000000000000000000000815260040161195b90613d13565b60405180910390fd5b600b5434146119a8576040517f08c379a000000000000000000000000000000000000000000000000000000000815260040161199f90613da5565b60405180910390fd5b6000600a600084815260200190815260200160002060040160006101000a81548160ff02191690831515021790555080600a60008481526020019081526020016000206003018190555033600a600084815260200190815260200160002060010160006101000a81548173ffffffffffffffffffffffffffffffffffffffff021916908373ffffffffffffffffffffffffffffffffffffffff16021790555030600a600084815260200190815260200160002060020160006101000a81548173ffffffffffffffffffffffffffffffffffffffff021916908373ffffffffffffffffffffffffffffffffffffffff160217905550611aa6600861281b565b611ab1333084611d54565b5050565b6000600560008473ffffffffffffffffffffffffffffffffffffffff1673ffffffffffffffffffffffffffffffffffffffff16815260200190815260200160002060008373ffffffffffffffffffffffffffffffffffffffff1673ffffffffffffffffffffffffffffffffffffffff16815260200190815260200160002060009054906101000a900460ff16905092915050565b60007f01ffc9a7000000000000000000000000000000000000000000000000000000007bffffffffffffffffffffffffffffffffffffffffffffffffffffffff1916827bffffffffffffffffffffffffffffffffffffffffffffffffffffffff1916149050919050565b611bbc81612877565b611bfb576040517f08c379a0000000000000000000000000000000000000000000000000000000008152600401611bf290613a5d565b60405180910390fd5b50565b600033905090565b816004600083815260200190815260200160002060006101000a81548173ffffffffffffffffffffffffffffffffffffffff021916908373ffffffffffffffffffffffffffffffffffffffff160217905550808273ffffffffffffffffffffffffffffffffffffffff16611c7983610cb8565b73ffffffffffffffffffffffffffffffffffffffff167f8c5be1e5ebec7d5bd14f71427d1e84f3dd0314c0f7b2291e5b200ac8c7c3b92560405160405180910390a45050565b600080611ccb83610cb8565b90508073ffffffffffffffffffffffffffffffffffffffff168473ffffffffffffffffffffffffffffffffffffffff161480611d0d5750611d0c8185611ab5565b5b80611d4b57508373ffffffffffffffffffffffffffffffffffffffff16611d3384610762565b73ffffffffffffffffffffffffffffffffffffffff16145b91505092915050565b8273ffffffffffffffffffffffffffffffffffffffff16611d7482610cb8565b73ffffffffffffffffffffffffffffffffffffffff1614611dca576040517f08c379a0000000000000000000000000000000000000000000000000000000008152600401611dc190613e37565b60405180910390fd5b600073ffffffffffffffffffffffffffffffffffffffff168273ffffffffffffffffffffffffffffffffffffffff1603611e39576040517f08c379a0000000000000000000000000000000000000000000000000000000008152600401611e3090613ec9565b60405180910390fd5b611e4683838360016128b8565b8273ffffffffffffffffffffffffffffffffffffffff16611e6682610cb8565b73ffffffffffffffffffffffffffffffffffffffff1614611ebc576040517f08c379a0000000000000000000000000000000000000000000000000000000008152600401611eb390613e37565b60405180910390fd5b6004600082815260200190815260200160002060006101000a81549073ffffffffffffffffffffffffffffffffffffffff02191690556001600360008573ffffffffffffffffffffffffffffffffffffffff1673ffffffffffffffffffffffffffffffffffffffff168152602001908152602001600020600082825403925050819055506001600360008473ffffffffffffffffffffffffffffffffffffffff1673ffffffffffffffffffffffffffffffffffffffff16815260200190815260200160002060008282540192505081905550816002600083815260200190815260200160002060006101000a81548173ffffffffffffffffffffffffffffffffffffffff021916908373ffffffffffffffffffffffffffffffffffffffff160217905550808273ffffffffffffffffffffffffffffffffffffffff168473ffffffffffffffffffffffffffffffffffffffff167fddf252ad1be2c89b69c2b068fc378daa952ba7f163c4a11628f55a4df523b3ef60405160405180910390a461204883838360016129de565b505050565b600081600001549050919050565b60006002600083815260200190815260200160002060009054906101000a900473ffffffffffffffffffffffffffffffffffffffff169050919050565b6001816000016000828254019250508190555050565b600073ffffffffffffffffffffffffffffffffffffffff168273ffffffffffffffffffffffffffffffffffffffff160361211d576040517f08c379a000000000000000000000000000000000000000000000000000000000815260040161211490613f35565b60405180910390fd5b61212681612877565b15612166576040517f08c379a000000000000000000000000000000000000000000000000000000000815260040161215d90613fa1565b60405180910390fd5b6121746000838360016128b8565b61217d81612877565b156121bd576040517f08c379a00000000000000000000000000000000000000000000000000000000081526004016121b490613fa1565b60405180910390fd5b6001600360008473ffffffffffffffffffffffffffffffffffffffff1673ffffffffffffffffffffffffffffffffffffffff16815260200190815260200160002060008282540192505081905550816002600083815260200190815260200160002060006101000a81548173ffffffffffffffffffffffffffffffffffffffff021916908373ffffffffffffffffffffffffffffffffffffffff160217905550808273ffffffffffffffffffffffffffffffffffffffff16600073ffffffffffffffffffffffffffffffffffffffff167fddf252ad1be2c89b69c2b068fc378daa952ba7f163c4a11628f55a4df523b3ef60405160405180910390a46122c76000838360016129de565b5050565b6122d482612877565b612313576040517f08c379a000000000000000000000000000000000000000000000000000000000815260040161230a90614033565b60405180910390fd5b8060066000848152602001908152602001600020908161233391906141ff565b505050565b6123ce8160405160240161234c9190613164565b6040516020818303038152906040527ff82c50f1000000000000000000000000000000000000000000000000000000007bffffffffffffffffffffffffffffffffffffffffffffffffffffffff19166020820180517bffffffffffffffffffffffffffffffffffffffffffffffffffffffff83818316178352505050506129e4565b50565b60008111612414576040517f08c379a000000000000000000000000000000000000000000000000000000000815260040161240b9061431d565b60405180910390fd5b600b543414612458576040517f08c379a000000000000000000000000000000000000000000000000000000000815260040161244f90613da5565b60405180910390fd5b6040518060a001604052808381526020013373ffffffffffffffffffffffffffffffffffffffff1681526020013073ffffffffffffffffffffffffffffffffffffffff16815260200182815260200160001515815250600a60008481526020019081526020016000206000820151816000015560208201518160010160006101000a81548173ffffffffffffffffffffffffffffffffffffffff021916908373ffffffffffffffffffffffffffffffffffffffff16021790555060408201518160020160006101000a81548173ffffffffffffffffffffffffffffffffffffffff021916908373ffffffffffffffffffffffffffffffffffffffff1602179055506060820151816003015560808201518160040160006101000a81548160ff021916908315150217905550905050612591333084611d54565b817fdebdb32cb5230ab727c9c361b16fdb2015df225c10e6a3e7f60ecd5dc5be451633308460006040516125c8949392919061433d565b60405180910390a25050565b8173ffffffffffffffffffffffffffffffffffffffff168373ffffffffffffffffffffffffffffffffffffffff1603612642576040517f08c379a0000000000000000000000000000000000000000000000000000000008152600401612639906143ce565b60405180910390fd5b80600560008573ffffffffffffffffffffffffffffffffffffffff1673ffffffffffffffffffffffffffffffffffffffff16815260200190815260200160002060008473ffffffffffffffffffffffffffffffffffffffff1673ffffffffffffffffffffffffffffffffffffffff16815260200190815260200160002060006101000a81548160ff0219169083151502179055508173ffffffffffffffffffffffffffffffffffffffff168373ffffffffffffffffffffffffffffffffffffffff167f17307eab39ab6107e8899845ad3d59bd9653f200f220920489ca2b5937696c31836040516127339190612ee9565b60405180910390a3505050565b61274b848484611d54565b61275784848484612a0d565b612796576040517f08c379a000000000000000000000000000000000000000000000000000000000815260040161278d90614460565b60405180910390fd5b50505050565b606060405180602001604052806000815250905090565b60606127be82611bb3565b60006127c861279c565b905060008151116127e85760405180602001604052806000815250612813565b806127f284612b94565b604051602001612803929190613ca3565b6040516020818303038152906040525b915050919050565b60008160000154905060008111612867576040517f08c379a000000000000000000000000000000000000000000000000000000000815260040161285e906144cc565b60405180910390fd5b6001810382600001819055505050565b60008073ffffffffffffffffffffffffffffffffffffffff166128998361205b565b73ffffffffffffffffffffffffffffffffffffffff1614159050919050565b60018111156129d857600073ffffffffffffffffffffffffffffffffffffffff168473ffffffffffffffffffffffffffffffffffffffff161461294c5780600360008673ffffffffffffffffffffffffffffffffffffffff1673ffffffffffffffffffffffffffffffffffffffff16815260200190815260200160002060008282546129449190613b0f565b925050819055505b600073ffffffffffffffffffffffffffffffffffffffff168373ffffffffffffffffffffffffffffffffffffffff16146129d75780600360008573ffffffffffffffffffffffffffffffffffffffff1673ffffffffffffffffffffffffffffffffffffffff16815260200190815260200160002060008282546129cf9190613966565b925050819055505b5b50505050565b50505050565b60008151905060006a636f6e736f6c652e6c6f679050602083016000808483855afa5050505050565b6000612a2e8473ffffffffffffffffffffffffffffffffffffffff16612c62565b15612b87578373ffffffffffffffffffffffffffffffffffffffff1663150b7a02612a57611bfe565b8786866040518563ffffffff1660e01b8152600401612a799493929190614541565b6020604051808303816000875af1925050508015612ab557506040513d601f19601f82011682018060405250810190612ab291906145a2565b60015b612b37573d8060008114612ae5576040519150601f19603f3d011682016040523d82523d6000602084013e612aea565b606091505b506000815103612b2f576040517f08c379a0000000000000000000000000000000000000000000000000000000008152600401612b2690614460565b60405180910390fd5b805181602001fd5b63150b7a0260e01b7bffffffffffffffffffffffffffffffffffffffffffffffffffffffff1916817bffffffffffffffffffffffffffffffffffffffffffffffffffffffff191614915050612b8c565b600190505b949350505050565b606060006001612ba384612c85565b01905060008167ffffffffffffffff811115612bc257612bc161336f565b5b6040519080825280601f01601f191660200182016040528015612bf45781602001600182028036833780820191505090505b509050600082602001820190505b600115612c57578080600190039150507f3031323334353637383961626364656600000000000000000000000000000000600a86061a8153600a8581612c4b57612c4a6145cf565b5b04945060008503612c02575b819350505050919050565b6000808273ffffffffffffffffffffffffffffffffffffffff163b119050919050565b600080600090507a184f03e93ff9f4daa797ed6e38ed64bf6a1f0100000000000000008310612ce3577a184f03e93ff9f4daa797ed6e38ed64bf6a1f0100000000000000008381612cd957612cd86145cf565b5b0492506040810190505b6d04ee2d6d415b85acef81000000008310612d20576d04ee2d6d415b85acef81000000008381612d1657612d156145cf565b5b0492506020810190505b662386f26fc100008310612d4f57662386f26fc100008381612d4557612d446145cf565b5b0492506010810190505b6305f5e1008310612d78576305f5e1008381612d6e57612d6d6145cf565b5b0492506008810190505b6127108310612d9d576127108381612d9357612d926145cf565b5b0492506004810190505b60648310612dc05760648381612db657612db56145cf565b5b0492506002810190505b600a8310612dcf576001810190505b80915050919050565b6040518060a0016040528060008152602001600073ffffffffffffffffffffffffffffffffffffffff168152602001600073ffffffffffffffffffffffffffffffffffffffff168152602001600081526020016000151581525090565b6000604051905090565b600080fd5b600080fd5b60007fffffffff0000000000000000000000000000000000000000000000000000000082169050919050565b612e7e81612e49565b8114612e8957600080fd5b50565b600081359050612e9b81612e75565b92915050565b600060208284031215612eb757612eb6612e3f565b5b6000612ec584828501612e8c565b91505092915050565b60008115159050919050565b612ee381612ece565b82525050565b6000602082019050612efe6000830184612eda565b92915050565b600081519050919050565b600082825260208201905092915050565b60005b83811015612f3e578082015181840152602081019050612f23565b60008484015250505050565b6000601f19601f8301169050919050565b6000612f6682612f04565b612f708185612f0f565b9350612f80818560208601612f20565b612f8981612f4a565b840191505092915050565b60006020820190508181036000830152612fae8184612f5b565b905092915050565b6000819050919050565b612fc981612fb6565b8114612fd457600080fd5b50565b600081359050612fe681612fc0565b92915050565b60006020828403121561300257613001612e3f565b5b600061301084828501612fd7565b91505092915050565b600073ffffffffffffffffffffffffffffffffffffffff82169050919050565b600061304482613019565b9050919050565b61305481613039565b82525050565b600060208201905061306f600083018461304b565b92915050565b61307e81612fb6565b82525050565b600061308f82613019565b9050919050565b61309f81613084565b82525050565b600060a0820190506130ba6000830188613075565b6130c76020830187613096565b6130d46040830186613096565b6130e16060830185613075565b6130ee6080830184612eda565b9695505050505050565b61310181613039565b811461310c57600080fd5b50565b60008135905061311e816130f8565b92915050565b6000806040838503121561313b5761313a612e3f565b5b60006131498582860161310f565b925050602061315a85828601612fd7565b9150509250929050565b60006020820190506131796000830184613075565b92915050565b60008060006060848603121561319857613197612e3f565b5b60006131a68682870161310f565b93505060206131b78682870161310f565b92505060406131c886828701612fd7565b9150509250925092565b600081519050919050565b600082825260208201905092915050565b6000819050602082019050919050565b61320781612fb6565b82525050565b61321681613084565b82525050565b61322581612ece565b82525050565b60a08201600082015161324160008501826131fe565b506020820151613254602085018261320d565b506040820151613267604085018261320d565b50606082015161327a60608501826131fe565b50608082015161328d608085018261321c565b50505050565b600061329f838361322b565b60a08301905092915050565b6000602082019050919050565b60006132c3826131d2565b6132cd81856131dd565b93506132d8836131ee565b8060005b838110156133095781516132f08882613293565b97506132fb836132ab565b9250506001810190506132dc565b5085935050505092915050565b6000602082019050818103600083015261333081846132b8565b905092915050565b60006020828403121561334e5761334d612e3f565b5b600061335c8482850161310f565b91505092915050565b600080fd5b600080fd5b7f4e487b7100000000000000000000000000000000000000000000000000000000600052604160045260246000fd5b6133a782612f4a565b810181811067ffffffffffffffff821117156133c6576133c561336f565b5b80604052505050565b60006133d9612e35565b90506133e5828261339e565b919050565b600067ffffffffffffffff8211156134055761340461336f565b5b61340e82612f4a565b9050602081019050919050565b82818337600083830152505050565b600061343d613438846133ea565b6133cf565b9050828152602081018484840111156134595761345861336a565b5b61346484828561341b565b509392505050565b600082601f83011261348157613480613365565b5b813561349184826020860161342a565b91505092915050565b600080604083850312156134b1576134b0612e3f565b5b600083013567ffffffffffffffff8111156134cf576134ce612e44565b5b6134db8582860161346c565b92505060206134ec85828601612fd7565b9150509250929050565b600060208201905061350b6000830184613096565b92915050565b61351a81612ece565b811461352557600080fd5b50565b60008135905061353781613511565b92915050565b6000806040838503121561355457613553612e3f565b5b60006135628582860161310f565b925050602061357385828601613528565b9150509250929050565b600067ffffffffffffffff8211156135985761359761336f565b5b6135a182612f4a565b9050602081019050919050565b60006135c16135bc8461357d565b6133cf565b9050828152602081018484840111156135dd576135dc61336a565b5b6135e884828561341b565b509392505050565b600082601f83011261360557613604613365565b5b81356136158482602086016135ae565b91505092915050565b6000806000806080858703121561363857613637612e3f565b5b60006136468782880161310f565b94505060206136578782880161310f565b935050604061366887828801612fd7565b925050606085013567ffffffffffffffff81111561368957613688612e44565b5b613695878288016135f0565b91505092959194509250565b600080604083850312156136b8576136b7612e3f565b5b60006136c685828601612fd7565b92505060206136d785828601612fd7565b9150509250929050565b600080604083850312156136f8576136f7612e3f565b5b60006137068582860161310f565b92505060206137178582860161310f565b9150509250929050565b7f4e487b7100000000000000000000000000000000000000000000000000000000600052602260045260246000fd5b6000600282049050600182168061376857607f821691505b60208210810361377b5761377a613721565b5b50919050565b7f4552433732313a20617070726f76616c20746f2063757272656e74206f776e6560008201527f7200000000000000000000000000000000000000000000000000000000000000602082015250565b60006137dd602183612f0f565b91506137e882613781565b604082019050919050565b6000602082019050818103600083015261380c816137d0565b9050919050565b7f4552433732313a20617070726f76652063616c6c6572206973206e6f7420746f60008201527f6b656e206f776e6572206f7220617070726f76656420666f7220616c6c000000602082015250565b600061386f603d83612f0f565b915061387a82613813565b604082019050919050565b6000602082019050818103600083015261389e81613862565b9050919050565b7f4552433732313a2063616c6c6572206973206e6f7420746f6b656e206f776e6560008201527f72206f7220617070726f76656400000000000000000000000000000000000000602082015250565b6000613901602d83612f0f565b915061390c826138a5565b604082019050919050565b60006020820190508181036000830152613930816138f4565b9050919050565b7f4e487b7100000000000000000000000000000000000000000000000000000000600052601160045260246000fd5b600061397182612fb6565b915061397c83612fb6565b925082820190508082111561399457613993613937565b5b92915050565b60006139a582612fb6565b91507fffffffffffffffffffffffffffffffffffffffffffffffffffffffffffffffff82036139d7576139d6613937565b5b600182019050919050565b7f4e487b7100000000000000000000000000000000000000000000000000000000600052603260045260246000fd5b7f4552433732313a20696e76616c696420746f6b656e2049440000000000000000600082015250565b6000613a47601883612f0f565b9150613a5282613a11565b602082019050919050565b60006020820190508181036000830152613a7681613a3a565b9050919050565b7f4552433732313a2061646472657373207a65726f206973206e6f74206120766160008201527f6c6964206f776e65720000000000000000000000000000000000000000000000602082015250565b6000613ad9602983612f0f565b9150613ae482613a7d565b604082019050919050565b60006020820190508181036000830152613b0881613acc565b9050919050565b6000613b1a82612fb6565b9150613b2583612fb6565b9250828203905081811115613b3d57613b3c613937565b5b92915050565b7f4f6e6c79206f776e6572206f667420746865206d61726b6574706c616365206360008201527f616e206368616e676520746865206c697374696e672070726963652100000000602082015250565b6000613b9f603c83612f0f565b9150613baa82613b43565b604082019050919050565b60006020820190508181036000830152613bce81613b92565b9050919050565b7f506c656173652c207375626d6974207468652061736b696e672070726963652060008201527f696e206f7264657220746f20636f6d706c657465207075726368617365000000602082015250565b6000613c31603d83612f0f565b9150613c3c82613bd5565b604082019050919050565b60006020820190508181036000830152613c6081613c24565b9050919050565b600081905092915050565b6000613c7d82612f04565b613c878185613c67565b9350613c97818560208601612f20565b80840191505092915050565b6000613caf8285613c72565b9150613cbb8284613c72565b91508190509392505050565b7f596f7520617265206e6f7420746865206f776e65720000000000000000000000600082015250565b6000613cfd601583612f0f565b9150613d0882613cc7565b602082019050919050565b60006020820190508181036000830152613d2c81613cf0565b9050919050565b7f5072696365206d75737420626520657175616c20746f206c697374696e67207060008201527f7269636500000000000000000000000000000000000000000000000000000000602082015250565b6000613d8f602483612f0f565b9150613d9a82613d33565b604082019050919050565b60006020820190508181036000830152613dbe81613d82565b9050919050565b7f4552433732313a207472616e736665722066726f6d20696e636f72726563742060008201527f6f776e6572000000000000000000000000000000000000000000000000000000602082015250565b6000613e21602583612f0f565b9150613e2c82613dc5565b604082019050919050565b60006020820190508181036000830152613e5081613e14565b9050919050565b7f4552433732313a207472616e7366657220746f20746865207a65726f2061646460008201527f7265737300000000000000000000000000000000000000000000000000000000602082015250565b6000613eb3602483612f0f565b9150613ebe82613e57565b604082019050919050565b60006020820190508181036000830152613ee281613ea6565b9050919050565b7f4552433732313a206d696e7420746f20746865207a65726f2061646472657373600082015250565b6000613f1f602083612f0f565b9150613f2a82613ee9565b602082019050919050565b60006020820190508181036000830152613f4e81613f12565b9050919050565b7f4552433732313a20746f6b656e20616c7265616479206d696e74656400000000600082015250565b6000613f8b601c83612f0f565b9150613f9682613f55565b602082019050919050565b60006020820190508181036000830152613fba81613f7e565b9050919050565b7f45524337323155524953746f726167653a2055524920736574206f66206e6f6e60008201527f6578697374656e7420746f6b656e000000000000000000000000000000000000602082015250565b600061401d602e83612f0f565b915061402882613fc1565b604082019050919050565b6000602082019050818103600083015261404c81614010565b9050919050565b60008190508160005260206000209050919050565b60006020601f8301049050919050565b600082821b905092915050565b6000600883026140b57fffffffffffffffffffffffffffffffffffffffffffffffffffffffffffffffff82614078565b6140bf8683614078565b95508019841693508086168417925050509392505050565b6000819050919050565b60006140fc6140f76140f284612fb6565b6140d7565b612fb6565b9050919050565b6000819050919050565b614116836140e1565b61412a61412282614103565b848454614085565b825550505050565b600090565b61413f614132565b61414a81848461410d565b505050565b5b8181101561416e57614163600082614137565b600181019050614150565b5050565b601f8211156141b35761418481614053565b61418d84614068565b8101602085101561419c578190505b6141b06141a885614068565b83018261414f565b50505b505050565b600082821c905092915050565b60006141d6600019846008026141b8565b1980831691505092915050565b60006141ef83836141c5565b9150826002028217905092915050565b61420882612f04565b67ffffffffffffffff8111156142215761422061336f565b5b61422b8254613750565b614236828285614172565b600060209050601f8311600181146142695760008415614257578287015190505b61426185826141e3565b8655506142c9565b601f19841661427786614053565b60005b8281101561429f5784890151825560018201915060208501945060208101905061427a565b868310156142bc57848901516142b8601f8916826141c5565b8355505b6001600288020188555050505b505050505050565b7f5072696365206d757374206265206174206c6561737420312077656900000000600082015250565b6000614307601c83612f0f565b9150614312826142d1565b602082019050919050565b60006020820190508181036000830152614336816142fa565b9050919050565b6000608082019050614352600083018761304b565b61435f602083018661304b565b61436c6040830185613075565b6143796060830184612eda565b95945050505050565b7f4552433732313a20617070726f766520746f2063616c6c657200000000000000600082015250565b60006143b8601983612f0f565b91506143c382614382565b602082019050919050565b600060208201905081810360008301526143e7816143ab565b9050919050565b7f4552433732313a207472616e7366657220746f206e6f6e20455243373231526560008201527f63656976657220696d706c656d656e7465720000000000000000000000000000602082015250565b600061444a603283612f0f565b9150614455826143ee565b604082019050919050565b600060208201905081810360008301526144798161443d565b9050919050565b7f436f756e7465723a2064656372656d656e74206f766572666c6f770000000000600082015250565b60006144b6601b83612f0f565b91506144c182614480565b602082019050919050565b600060208201905081810360008301526144e5816144a9565b9050919050565b600081519050919050565b600082825260208201905092915050565b6000614513826144ec565b61451d81856144f7565b935061452d818560208601612f20565b61453681612f4a565b840191505092915050565b6000608082019050614556600083018761304b565b614563602083018661304b565b6145706040830185613075565b81810360608301526145828184614508565b905095945050505050565b60008151905061459c81612e75565b92915050565b6000602082840312156145b8576145b7612e3f565b5b60006145c68482850161458d565b91505092915050565b7f4e487b7100000000000000000000000000000000000000000000000000000000600052601260045260246000fdfea2646970667358221220eb1fe3ed10cd9c722bd17b9d2614a002e8f9c33dc6c25028cdced630475fed6d64736f6c63430008110033",
  "linkReferences": {},
  "deployedLinkReferences": {}
}